{
  "contractName": "WageRecorder",
  "abi": [
    {
      "inputs": [],
      "stateMutability": "nonpayable",
      "type": "constructor"
    },
    {
      "anonymous": false,
      "inputs": [
        {
          "indexed": true,
          "internalType": "address",
          "name": "mandor",
          "type": "address"
        }
      ],
      "name": "AuthorizedAdded",
      "type": "event"
    },
    {
      "anonymous": false,
      "inputs": [
        {
          "indexed": true,
          "internalType": "address",
          "name": "mandor",
          "type": "address"
        }
      ],
      "name": "AuthorizedRemoved",
      "type": "event"
    },
    {
      "anonymous": false,
      "inputs": [
        {
          "indexed": false,
          "internalType": "string",
          "name": "workerId",
          "type": "string"
        },
        {
          "indexed": false,
          "internalType": "string",
          "name": "name",
          "type": "string"
        },
        {
          "indexed": false,
          "internalType": "uint256",
          "name": "amount",
          "type": "uint256"
        },
        {
          "indexed": false,
          "internalType": "string",
          "name": "date",
          "type": "string"
        },
        {
          "indexed": false,
          "internalType": "address",
          "name": "reporter",
          "type": "address"
        },
        {
          "indexed": false,
          "internalType": "uint256",
          "name": "timestamp",
          "type": "uint256"
        }
      ],
      "name": "WageRecorded",
      "type": "event"
    },
    {
      "inputs": [
        {
          "internalType": "address",
          "name": "",
          "type": "address"
        }
      ],
      "name": "authorized",
      "outputs": [
        {
          "internalType": "bool",
          "name": "",
          "type": "bool"
        }
      ],
      "stateMutability": "view",
      "type": "function",
      "constant": true
    },
    {
      "inputs": [],
      "name": "owner",
      "outputs": [
        {
          "internalType": "address",
          "name": "",
          "type": "address"
        }
      ],
      "stateMutability": "view",
      "type": "function",
      "constant": true
    },
    {
      "inputs": [
        {
          "internalType": "address",
          "name": "mandor",
          "type": "address"
        }
      ],
      "name": "addAuthorized",
      "outputs": [],
      "stateMutability": "nonpayable",
      "type": "function"
    },
    {
      "inputs": [
        {
          "internalType": "address",
          "name": "mandor",
          "type": "address"
        }
      ],
      "name": "removeAuthorized",
      "outputs": [],
      "stateMutability": "nonpayable",
      "type": "function"
    },
    {
      "inputs": [
        {
          "internalType": "string",
          "name": "workerId",
          "type": "string"
        },
        {
          "internalType": "string",
          "name": "name",
          "type": "string"
        },
        {
          "internalType": "uint256",
          "name": "amount",
          "type": "uint256"
        },
        {
          "internalType": "string",
          "name": "date",
          "type": "string"
        }
      ],
      "name": "logWage",
      "outputs": [],
      "stateMutability": "nonpayable",
      "type": "function"
    },
    {
      "inputs": [],
      "name": "getWagesCount",
      "outputs": [
        {
          "internalType": "uint256",
          "name": "",
          "type": "uint256"
        }
      ],
      "stateMutability": "view",
      "type": "function",
      "constant": true
    },
    {
      "inputs": [
        {
          "internalType": "uint256",
          "name": "index",
          "type": "uint256"
        }
      ],
      "name": "getWage",
      "outputs": [
        {
          "internalType": "string",
          "name": "workerId",
          "type": "string"
        },
        {
          "internalType": "string",
          "name": "name",
          "type": "string"
        },
        {
          "internalType": "uint256",
          "name": "amount",
          "type": "uint256"
        },
        {
          "internalType": "string",
          "name": "date",
          "type": "string"
        },
        {
          "internalType": "address",
          "name": "reporter",
          "type": "address"
        },
        {
          "internalType": "uint256",
          "name": "timestamp",
          "type": "uint256"
        }
      ],
      "stateMutability": "view",
      "type": "function",
      "constant": true
    }
  ],
  "bytecode": "0x608060405234801561001057600080fd5b5033600160006101000a81548173ffffffffffffffffffffffffffffffffffffffff021916908373ffffffffffffffffffffffffffffffffffffffff160217905550600160026000600160009054906101000a900473ffffffffffffffffffffffffffffffffffffffff1673ffffffffffffffffffffffffffffffffffffffff1673ffffffffffffffffffffffffffffffffffffffff16815260200190815260200160002060006101000a81548160ff02191690831515021790555061115a806100db6000396000f3fe608060405234801561001057600080fd5b506004361061007d5760003560e01c8063b3848bdc1161005b578063b3848bdc146100f1578063b91816111461010f578063cf1c316a1461013f578063d2bfe8231461015b5761007d565b80632481199814610082578063485d7d94146100b75780638da5cb5b146100d3575b600080fd5b61009c60048036038101906100979190610bff565b610177565b6040516100ae96959493929190610e32565b60405180910390f35b6100d160048036038101906100cc9190610b2b565b610472565b005b6100db6105a0565b6040516100e89190610dfc565b60405180910390f35b6100f96105c6565b6040516101069190610f28565b60405180910390f35b61012960048036038101906101249190610b2b565b6105d2565b6040516101369190610e17565b60405180910390f35b61015960048036038101906101549190610b2b565b6105f2565b005b61017560048036038101906101709190610b54565b610720565b005b6060806000606060008060008054905087106101c8576040517f08c379a00000000000000000000000000000000000000000000000000000000081526004016101bf90610ee8565b60405180910390fd5b6000808881548110610203577f4e487b7100000000000000000000000000000000000000000000000000000000600052603260045260246000fd5b90600052602060002090600602016040518060c001604052908160008201805461022c90611055565b80601f016020809104026020016040519081016040528092919081815260200182805461025890611055565b80156102a55780601f1061027a576101008083540402835291602001916102a5565b820191906000526020600020905b81548152906001019060200180831161028857829003601f168201915b505050505081526020016001820180546102be90611055565b80601f01602080910402602001604051908101604052809291908181526020018280546102ea90611055565b80156103375780601f1061030c57610100808354040283529160200191610337565b820191906000526020600020905b81548152906001019060200180831161031a57829003601f168201915b505050505081526020016002820154815260200160038201805461035a90611055565b80601f016020809104026020016040519081016040528092919081815260200182805461038690611055565b80156103d35780601f106103a8576101008083540402835291602001916103d3565b820191906000526020600020905b8154815290600101906020018083116103b657829003601f168201915b505050505081526020016004820160009054906101000a900473ffffffffffffffffffffffffffffffffffffffff1673ffffffffffffffffffffffffffffffffffffffff1673ffffffffffffffffffffffffffffffffffffffff1681526020016005820154815250509050806000015181602001518260400151836060015184608001518560a001519650965096509650965096505091939550919395565b600160009054906101000a900473ffffffffffffffffffffffffffffffffffffffff1673ffffffffffffffffffffffffffffffffffffffff163373ffffffffffffffffffffffffffffffffffffffff1614610502576040517f08c379a00000000000000000000000000000000000000000000000000000000081526004016104f990610ea8565b60405180910390fd5b6000600260008373ffffffffffffffffffffffffffffffffffffffff1673ffffffffffffffffffffffffffffffffffffffff16815260200190815260200160002060006101000a81548160ff0219169083151502179055508073ffffffffffffffffffffffffffffffffffffffff167f0fafd0343e6c6f6985727574866da48938c918559eb9521cf9cc0d317ea0f7b460405160405180910390a250565b600160009054906101000a900473ffffffffffffffffffffffffffffffffffffffff1681565b60008080549050905090565b60026020528060005260406000206000915054906101000a900460ff1681565b600160009054906101000a900473ffffffffffffffffffffffffffffffffffffffff1673ffffffffffffffffffffffffffffffffffffffff163373ffffffffffffffffffffffffffffffffffffffff1614610682576040517f08c379a000000000000000000000000000000000000000000000000000000000815260040161067990610ea8565b60405180910390fd5b6001600260008373ffffffffffffffffffffffffffffffffffffffff1673ffffffffffffffffffffffffffffffffffffffff16815260200190815260200160002060006101000a81548160ff0219169083151502179055508073ffffffffffffffffffffffffffffffffffffffff167fdd10d14f6ac19e913d4edbb11fd30661531e2ccd0d23f571e9b224f001f0dd0660405160405180910390a250565b600260003373ffffffffffffffffffffffffffffffffffffffff1673ffffffffffffffffffffffffffffffffffffffff16815260200190815260200160002060009054906101000a900460ff166107ac576040517f08c379a00000000000000000000000000000000000000000000000000000000081526004016107a390610f08565b60405180910390fd5b6004846040516107bc9190610de5565b9081526020016040518091039020816040516107d89190610de5565b908152602001604051809103902060009054906101000a900460ff1615610834576040517f08c379a000000000000000000000000000000000000000000000000000000000815260040161082b90610ec8565b60405180910390fd5b60006040518060c001604052808681526020018581526020018481526020018381526020013373ffffffffffffffffffffffffffffffffffffffff168152602001428152509050600081908060018154018082558091505060019003906000526020600020906006020160009091909190915060008201518160000190805190602001906108c39291906109f6565b5060208201518160010190805190602001906108e09291906109f6565b506040820151816002015560608201518160030190805190602001906109079291906109f6565b5060808201518160040160006101000a81548173ffffffffffffffffffffffffffffffffffffffff021916908373ffffffffffffffffffffffffffffffffffffffff16021790555060a082015181600501555050600160048660405161096d9190610de5565b9081526020016040518091039020836040516109899190610de5565b908152602001604051809103902060006101000a81548160ff0219169083151502179055507f45c73d09a0d80542906ee25acb7df2653835689bc2588ecdbe7cbe918f3798088585858533426040516109e796959493929190610e32565b60405180910390a15050505050565b828054610a0290611055565b90600052602060002090601f016020900481019282610a245760008555610a6b565b82601f10610a3d57805160ff1916838001178555610a6b565b82800160010185558215610a6b579182015b82811115610a6a578251825591602001919060010190610a4f565b5b509050610a789190610a7c565b5090565b5b80821115610a95576000816000905550600101610a7d565b5090565b6000610aac610aa784610f74565b610f43565b905082815260208101848484011115610ac457600080fd5b610acf848285611013565b509392505050565b600081359050610ae6816110f6565b92915050565b600082601f830112610afd57600080fd5b8135610b0d848260208601610a99565b91505092915050565b600081359050610b258161110d565b92915050565b600060208284031215610b3d57600080fd5b6000610b4b84828501610ad7565b91505092915050565b60008060008060808587031215610b6a57600080fd5b600085013567ffffffffffffffff811115610b8457600080fd5b610b9087828801610aec565b945050602085013567ffffffffffffffff811115610bad57600080fd5b610bb987828801610aec565b9350506040610bca87828801610b16565b925050606085013567ffffffffffffffff811115610be757600080fd5b610bf387828801610aec565b91505092959194509250565b600060208284031215610c1157600080fd5b6000610c1f84828501610b16565b91505092915050565b610c3181610fcb565b82525050565b610c4081610fdd565b82525050565b6000610c5182610fa4565b610c5b8185610faf565b9350610c6b818560208601611022565b610c74816110e5565b840191505092915050565b6000610c8a82610fa4565b610c948185610fc0565b9350610ca4818560208601611022565b80840191505092915050565b6000610cbd600a83610faf565b91507f4f6e6c79206f776e6572000000000000000000000000000000000000000000006000830152602082019050919050565b6000610cfd603283610faf565b91507f5761676520666f72207468697320776f726b6572206f6e20746869732064617460008301527f6520616c7265616479207265636f7264656400000000000000000000000000006020830152604082019050919050565b6000610d63601283610faf565b91507f496e646578206f7574206f662072616e676500000000000000000000000000006000830152602082019050919050565b6000610da3600e83610faf565b91507f4e6f7420617574686f72697a65640000000000000000000000000000000000006000830152602082019050919050565b610ddf81611009565b82525050565b6000610df18284610c7f565b915081905092915050565b6000602082019050610e116000830184610c28565b92915050565b6000602082019050610e2c6000830184610c37565b92915050565b600060c0820190508181036000830152610e4c8189610c46565b90508181036020830152610e608188610c46565b9050610e6f6040830187610dd6565b8181036060830152610e818186610c46565b9050610e906080830185610c28565b610e9d60a0830184610dd6565b979650505050505050565b60006020820190508181036000830152610ec181610cb0565b9050919050565b60006020820190508181036000830152610ee181610cf0565b9050919050565b60006020820190508181036000830152610f0181610d56565b9050919050565b60006020820190508181036000830152610f2181610d96565b9050919050565b6000602082019050610f3d6000830184610dd6565b92915050565b6000604051905081810181811067ffffffffffffffff82111715610f6a57610f696110b6565b5b8060405250919050565b600067ffffffffffffffff821115610f8f57610f8e6110b6565b5b601f19601f8301169050602081019050919050565b600081519050919050565b600082825260208201905092915050565b600081905092915050565b6000610fd682610fe9565b9050919050565b60008115159050919050565b600073ffffffffffffffffffffffffffffffffffffffff82169050919050565b6000819050919050565b82818337600083830152505050565b60005b83811015611040578082015181840152602081019050611025565b8381111561104f576000848401525b50505050565b6000600282049050600182168061106d57607f821691505b6020821081141561108157611080611087565b5b50919050565b7f4e487b7100000000000000000000000000000000000000000000000000000000600052602260045260246000fd5b7f4e487b7100000000000000000000000000000000000000000000000000000000600052604160045260246000fd5b6000601f19601f8301169050919050565b6110ff81610fcb565b811461110a57600080fd5b50565b61111681611009565b811461112157600080fd5b5056fea26469706673582212208a20c872f865b1d61af2d33f4dc0af7c3210d467c700e4ee65e7968bf81ea3ce64736f6c63430008000033",
  "immutableReferences": {},
  "source": "// SPDX-License-Identifier: MIT\npragma solidity ^0.8.0;\n\ncontract WageRecorder {\n    struct Wage {\n        string workerId;\n        string name;\n        uint256 amount;\n        string date;\n        address reporter;\n        uint256 timestamp;\n    }\n\n    Wage[] private wages;\n    address public owner;\n    mapping(address => bool) public authorized;\n    mapping(string => bool) private recordedWorkerIds;\n    // Tambahkan ini di dalam kontrak (gantikan recordedWorkerIds yang lama)\n    mapping(string => mapping(string => bool)) private recordedWages;\n\n    \n    event WageRecorded(string workerId,string name, uint256 amount, string date, address reporter, uint256 timestamp);\n    event AuthorizedAdded(address indexed mandor);\n    event AuthorizedRemoved(address indexed mandor);\n\n    modifier onlyOwner() {\n        require(msg.sender == owner, \"Only owner\");\n        _;\n    }\n\n    modifier onlyAuthorized() {\n        require(authorized[msg.sender], \"Not authorized\");\n        _;\n    }\n\n    constructor() {\n        owner = msg.sender;\n        authorized[owner] = true;\n    }\n\n    function addAuthorized(address mandor) public onlyOwner {\n        authorized[mandor] = true;\n        emit AuthorizedAdded(mandor);\n    }\n\n    function removeAuthorized(address mandor) public onlyOwner {\n        authorized[mandor] = false;\n        emit AuthorizedRemoved(mandor);\n    }\n\n    function logWage(string memory workerId, string memory name, uint256 amount, string memory date) public onlyAuthorized {\n        require(!recordedWages[workerId][date], \"Wage for this worker on this date already recorded\");\n\n        Wage memory newWage = Wage({\n            workerId: workerId,\n            name : name,\n            amount: amount,\n            date: date,\n            reporter: msg.sender,\n            timestamp: block.timestamp\n        });\n\n        wages.push(newWage);\n        recordedWages[workerId][date] = true;\n\n        emit WageRecorded(workerId, name, amount, date, msg.sender, block.timestamp);\n    }\n\n\n    function getWagesCount() public view returns (uint256) {\n        return wages.length;\n    }\n\n    function getWage(uint256 index) public view returns (\n        string memory workerId,\n        string memory name,\n        uint256 amount,\n        string memory date,\n        address reporter,\n        uint256 timestamp\n    ) {\n        require(index < wages.length, \"Index out of range\");\n        Wage memory wage = wages[index];\n        return (\n            wage.workerId,\n            wage.name,\n            wage.amount,\n            wage.date,\n            wage.reporter,\n            wage.timestamp\n        );\n    }\n}\n",
  "sourcePath": "/home/project-kuliah/blockchain/test/Wage-Checker-Blockchain/blockchain/contracts/WageRecorder.sol",
  "compiler": {
    "name": "solc",
    "version": "0.8.0+commit.c7dfd78e.Emscripten.clang"
  },
  "schemaVersion": "3.4.16",
  "updatedAt": "2025-07-04T02:29:25.669Z",
  "networkType": "ethereum",
  "devdoc": {
    "kind": "dev",
    "methods": {},
    "version": 1
  },
  "userdoc": {
    "kind": "user",
    "methods": {},
    "version": 1
  }
}